:020000040800F2
:1000000000000220E5020008890100088D010008B7
:10001000A1010008A5010008B901000800000000C6
:10002000000000000000000000000000CD010008FA
:10003000D101000800000000D50100087506000885
:10004000D9010008D9010008D9010008D901000828
:10005000D9010008D9010008D9010008D901000818
:10006000D9010008D9010008D9010008D901000808
:10007000D9010008D9010008D9010008D9010008F8
:10008000D9010008D9010008D9010008D9010008E8
:10009000D9010008D9010008D9010008D9010008D8
:1000A000D9010008D9010008D9010008D9010008C8
:1000B000D9010008D9010008D9010008D9010008B8
:1000C000D9010008D9010008D9010008D9010008A8
:1000D000D9010008D9010008D9010008D901000898
:1000E000D9010008D9010008D9010008D901000888
:1000F000D9010008D9010008D9010008D901000878
:10010000D9010008D9010008D9010008D901000867
:10011000D9010008D9010008D9010008D901000857
:10012000D9010008D9010008D9010008D901000847
:10013000D9010008D9010008D9010008D901000837
:10014000D9010008D9010008D9010008D901000827
:10015000D9010008D9010008D9010008D901000817
:10016000D9010008D9010008D9010008D901000807
:10017000D9010008D9010008D901000800000000D9
:10018000D9010008D901000800BEFEE71EF0040FE7
:100190000CBFEFF30880EFF3098071467A4A1047ED
:1001A00000BEFEE71EF0040F0CBFEFF30880EFF374
:1001B00009807146754A10471EF0040F0CBFEFF31B
:1001C0000880EFF309807146714A104700BEFEE7D0
:1001D00000BEFEE700BEFEE700BEFEE700B583B04E
:1001E00000F0BCF9304B314A1360314A1360314999
:1001F00006E052F8041B43F8041B9842F9D8614604
:100200002D4B994205D20A684B6801F10C0C8868A5
:10021000F3E7264B1A68294B9A4200D0FEE7244B9D
:100220001A68274B9A42F9D11F4B264A1360264A77
:100230001360264A00E00246254B9A4209D2104636
:1002400050F8083B51689942F5D9002243F8042B35
:10025000F9E71C4B1B6813B91B4B1B6803B1FEE786
:1002600001F0B6F8694601A800F040F9194C1A4BA4
:10027000E41AA410002504E0174B53F825309847E2
:100280000135AC42F8DC154C154BE41AA4100025DE
:1002900004E0134B53F8253098470135AC42F8DCA5
:1002A0000099019801F0ACF8BABADECA000000204B
:1002B0006400002094030008AC0300087856341250
:1002C00032547698680000200C010020AC0300082E
:1002D000BC030008BC030008BC030008BC03000802
:1002E000BC03000808B5FFF779FF2DE9F04182B0A3
:1002F00004460D46084B5F6BD3F838809E6A07486A
:1003000000F0BEF9009543463A463146204600F0DB
:10031000D1F900BEFEE700BF00ED00E09824000820
:100320002DE9F04182B004460D46084B5F6BD3F8CF
:1003300038809E6A064800F0A3F9009543463A4685
:100340003146204600F0B6F900BEFEE700ED00E0C1
:10035000A82400082DE9F04182B004460D46084B60
:100360005F6BD3F838809E6A064800F089F90095E3
:1003700043463A463146204600F09CF900BEFEE76F
:1003800000ED00E0B4240008EB020008210300089F
:040390005503000809
:10039400AC2500080000002068000020AC250008FF
:1003A4000000001000000010680000201001002070
:0803B400000000100000001021
:1003C000024A136801331360704700BFFC0000202D
:1003D000014B1868704700BFFC000020002808DBB4
:1003E0000901C9B200F1604000F5614080F80013D6
:1003F000704700F00F000901C9B2014B1954704752
:1004000014ED00E000B500F00700C0F1070CBCF1EE
:10041000040F28BF4FF0040C031D062B0FD9C31E79
:100420004FF0FF3E0EFA0CF021EA000199400EFA5F
:1004300003FE22EA0E0241EA02005DF804FB0023FB
:10044000EEE700000138B0F1807F0BD24FF0E023DF
:100450005861054AF02182F8231000209861072294
:100460001A6170470120704700ED00E008B5194B94
:100470009B6803F00C03042B27D0082B27D1154BC6
:100480005A6802F03F025B6813F4800F12D0114BE0
:100490005968C1F3881110480023A1FB000101F045
:1004A0001DFD0C4B5B68C3F3014301335B00B0FBE4
:1004B000F3F00DE0074B5968C1F38811074800239A
:1004C000A1FB000101F00AFDEBE7034800E003484F
:1004D00008BD00BF0038024000127A000024F4007A
:1004E000014B1868704700BF100000200123036013
:1004F000014B0B60704700BF0400002000228A42BD
:100500001DD24FF06043D3F8803E13F0010F14D09A
:100510004FF06043D3F8003E13F0010F0DD04FF0C1
:1005200060431B68002BFAD010F9013BDBB24FF09F
:10053000604C8CF800300132E1E710467047084605
:10054000704708B5FFF7DAFF08BD0000024B4FF017
:1005500000629A60704700BF00ED00E008B5FFF749
:10056000F5FF024A024B9A6008BD00BF0000000878
:1005700000ED00E0224B9B6803F00C03042B14D029
:10058000082B16D01BB11F4B1F4A1A6002E01D4BEF
:100590001D4A1A601A4B9B68C3F303131B4AD15CB4
:1005A000184A1368CB4013607047164B184A1A60FC
:1005B000F0E7134B59685A6802F03F0211F4800FBC
:1005C00013D0134BB3FBF2F30D4A5268C2F38812F7
:1005D00002FB03F30A4A5268C2F30142013252009D
:1005E000B3FBF2F3074A1360D4E7074BB3FBF2F314
:1005F000034A5268C2F3881202FB03F3EAE700BF22
:1006000000380240100000200024F400E824000814
:1006100000127A000A4B1B680A4AA2FB03239B09BB
:10062000013BB3F1807F0AD24FF0E0225361064BC9
:10063000F02183F82310002393610723136170478F
:1006400010000020D34D621000ED00E0034B186055
:10065000024B1B68002BFBD1704700BF74000020C9
:10066000034B1B681BB1024A1368013B13607047C0
:100670007400002008B5FFF7A3FEFFF7F1FF08BDE7
:100680000FB400B583B004AB53F8042B0193802161
:10069000074800F057FF002804DC03B05DF804EBC6
:1006A00004B0704701460248FFF74BFFF5E700BF73
:1006B00078000020F8B504460D4617461E46274828
:1006C000FFF7DEFF21682648FFF7DAFF616825485B
:1006D000FFF7D6FFA1682448FFF7D2FFE16823485F
:1006E000FFF7CEFF21692248FFF7CAFF6169214861
:1006F000FFF7C6FFA1692048FFF7C2FFE1691F4865
:10070000FFF7BEFF1E48FFF7BBFF29461D48FFF756
:10071000B7FF1D4CE16A1D48FFF7B2FF216B1C4873
:10072000FFF7AEFFE16B1B48FFF7AAFF15F0800F44
:100730000AD115F4004F0CD11748FFF7A1FF069915
:100740001648FFF79DFFF8BD39461548FFF798FF9B
:10075000EFE731461348FFF793FFEDE7CC210008A0
:10076000DC210008EC210008FC2100080C22000814
:100770001C2200082C2200083C2200084C22000801
:100780005C2200086822000800ED00E078220008E2
:100790008822000898220008C8220008D0220008F9
:1007A000A8220008B822000808B50A4601460248F7
:1007B000FFF766FFFEE700BFE822000808B5C31E8A
:1007C000042B0FD8094AD36823F4E0631B041B0CE5
:1007D000000200F4E060034343F0BF6343F40033DE
:1007E000D36008BD92210248FFF7DEFF00ED00E074
:1007F0001823000810B50F2A0DD804460F290ED86B
:10080000094BD868C0F30220FFF7FCFD01462046E3
:10081000FFF7E4FD10BDAA210448FFF7C5FFAB2197
:100820000248FFF7C1FF00BF00ED00E018230008F9
:1008300010B504460C4B18680C4BA3FB0030800924
:10084000FFF700FE68B90F2C01D901200AE0002251
:1008500021464FF0FF30FFF7CDFF054B1C60002015
:1008600000E0012010BD00BF10000020D34D621039
:100870000C00002008B50A4B1A6842F400721A6096
:100880001A6842F480621A601A6842F480721A6030
:100890000320FFF793FF0F20FFF7CAFF002008BDDA
:1008A000003C024008B5042807D068B94FF0E022A8
:1008B000136923F00403136108BD4FF0E0221369AC
:1008C00043F004031361F7E740F2C9110148FFF751
:1008D0006BFF00BF18230008F0B583B0AA4B984205
:1008E00023D003F5806398421FD003F580639842BC
:1008F0001BD003F58063984217D003F580639842BC
:1009000013D003F5806398420FD003F580639842BB
:100910000BD003F58063984207D003F580639842BB
:1009200003D0B3219948FFF73FFF0B689AB212B189
:10093000B3F5803F03D3B4219448FFF735FF4B68EC
:10094000012B11D9924A93420ED015D8A2F58012EC
:10095000934209D003D98F4A934205D017E0032B65
:1009600007D9113B012B12D88B68022B13D8002317
:10097000B0E0022B0BD3F7E7874A9342F4D002F59D
:1009800080329342F0D0A2F580129342ECD0B52190
:100990007E48FFF709FFB6217C48FFF705FFC82115
:1009A0007A48FFF701FF0F2A40F0DB80DD080835A9
:1009B00050F8257003F00706B6000F22B24027EA70
:1009C00002070A69B2403A4340F825200268144001
:1009D0004A6802F0030202FA0EF2224302604A68F9
:1009E00012F0805F75D0002201926C4A546C44F47E
:1009F00080445464526C02F480420192019A9C0833
:100A0000A51C674A52F8256003F00305AD000F22CC
:100A1000AA4026EA02065C4A904225D002F580628E
:100A2000904200F0A28002F58062904200F09F8028
:100A300002F58062904200F09C8002F58062904254
:100A400000F0998002F58062904200F0968002F5F5
:100A50008062904200F0938002F58062904201D063
:100A6000082202E0072200E00022AA4032430234BA
:100A70004B4D45F824204B4A14686FEA0C0224EAD7
:100A80000C054E6816F4803F01D04CEA0405454C35
:100A90002560646802EA04054E6816F4003F01D040
:100AA0004CEA04053F4C6560A46802EA04054E6800
:100AB00016F4801F01D04CEA04053A4CA560E468A6
:100AC00022404D6815F4001F01D04CEA0402354C59
:100AD000E26001330F2B54D801229A400C6804EADB
:100AE000020C32EA0404F4D14C68651E012D03D9CE
:100AF000112C01D0122C16D1CC68032C3FF64FAF2D
:100B000085685E000324B44025EA0405CC68B4403F
:100B10002C438460446824EA02044A68C2F3001249
:100B20009A4022434260C5684FEA430E032202FA0C
:100B30000EF2D44325EA02058A6802FA0EF22A432D
:100B4000C2604A68022A02D0122A7FF43FAF0A69C3
:100B5000002A3FF42BAF0D2A3FF625AF002A7FF481
:100B600025AFE0210948FFF71FFE01227DE70222A1
:100B70007BE7032279E7042277E7052275E706225F
:100B800073E703B0F0BD00BF000002404C23000833
:100B90000000211000001210000031100038024047
:100BA00000380140003C014008B521B1012A07D8B6
:100BB0005AB1816108BD40F29F110548FFF7F4FD6D
:100BC0004FF4D0710248FFF7EFFD0B048361F1E7AA
:100BD0004C23000808B501224FF480510148FFF76B
:100BE000E3FF08BD000C024008B500224FF480511D
:100BF0000148FFF7D9FF08BD000C024000B587B0DF
:100C00000A4A136B43F0080313634FF480530193B4
:100C10000123029302220492039301A90448FFF7DF
:100C20005BFEFFF7E1FF07B05DF804FB0038024010
:100C3000000C0240002800F0528270B582B00446D9
:100C400003680F2B39D8036813F0010F4BD04368AA
:100C50002BB1B3F5803F02D0B3F5A02F31D19F4B1C
:100C60009B6803F00C03042B34D09C4B9B6803F06F
:100C70000C03082B29D06368B3F5803F5DD0B3F532
:100C8000A02F60D0954B1A6822F480321A601A683F
:100C900022F480221A606368002B5ED0FFF798FB75
:100CA00005468E4B1B6813F4003F1CD1FFF790FBE9
:100CB000401B6428F5D9032018E2E8218848FFF793
:100CC00073FDED218648FFF76FFD844B5B6813F4DD
:100CD000800FD0D0814B1B6813F4003F03D06368B2
:100CE000002B00F0FE81236813F0020F64D0E3684C
:100CF000012B41D823691F2B43D8784B9B6813F0F5
:100D00000C0F48D0754B9B6803F00C03082B3DD0AB
:100D1000E368002B75D0734B01221A60FFF758FB74
:100D200005466E4B1B6813F0020F61D1FFF750FBB5
:100D3000401B0228F5D90320D8E1684A136843F420
:100D400080331360A7E7654B1A6842F480221A606B
:100D50001A6842F480321A609DE7FFF739FB0546B6
:100D60005E4B1B6813F4003FBDD0FFF731FB401B07
:100D70006428F5D90320B9E140F21F115848FFF764
:100D800013FD4FF490715648FFF70EFD534B5B680F
:100D900013F4800FBCD1514B1B6813F0020F03D02A
:100DA000E368012B40F09F814C4A1368216923F0CE
:100DB000F80343EAC1031360236813F0080F4AD015
:100DC0006369012B2FD8636993B3464B0122C3F8A3
:100DD000802EFFF7FDFA0546404B5B6F13F0020FC4
:100DE00039D1FFF7F5FA401B0228F5D903207DE140
:100DF0003A4A1368216923F0F80343EAC1031360F8
:100E0000DAE7384B00221A60FFF7E2FA0546334B67
:100E10001B6813F0020FCFD0FFF7DAFA401B02284D
:100E2000F5D9032062E14FF4B0712D48FFF7BCFC07
:100E30002C4B0022C3F8802EFFF7CAFA0546274B39
:100E40005B6F13F0020F06D0FFF7C2FA401B0228B7
:100E5000F5D903204AE1236813F0040F00F08480E1
:100E6000A368012B01D9052B40D11C4B1B6C13F03F
:100E7000805F40D100230193184B1A6C42F08052DE
:100E80001A641B6C03F080530193019B0125164BE0
:100E90001B6813F4807F30D0A368012B41D0052B51
:100EA00045D00E4B1A6F22F001021A671A6F22F01A
:100EB00004021A67A368002B43D0FFF789FA06469D
:100EC000064B1B6F13F0020F4CD1FFF781FA801B0A
:100ED00041F288339842F3D9032007E100380240F9
:100EE0007C23000800004742007000404FF4C671A8
:100EF0008548FFF759FC0025C9E7844A136843F485
:100F000080731360FFF764FA0646804B1B6813F486
:100F1000807FC1D1FFF75CFA801B0228F5D903203E
:100F2000E4E07B4A136F43F001031367C2E7784B99
:100F30001A6F42F004021A671A6F42F001021A6730
:100F4000B8E7FFF745FA0646714B1B6F13F0020F27
:100F500008D0FFF73DFA801B41F288339842F3D95D
:100F60000320C3E0002D3ED1A369022B41D8A36921
:100F7000002B00F0BA80664A926802F00C02082A40
:100F800000F08D80022B76D1E36913B1B3F5800FA9
:100F900034D1236A3F2B36D8636A323BB3F5BF7F27
:100FA00036D8A36A022B08D0082B36D84FF4A87283
:100FB00022FA03F313F0010F2FD0E36A023B0D2B4B
:100FC00030D8544B00221A66FFF702FA0546504B00
:100FD0001B6813F0007F2AD0FFF7FAF9401B0228A4
:100FE000F5D9032082E04A4A136C23F0805313643E
:100FF000BAE740F2CF114448FFF7D6FB4FF4EC714B
:101000004148FFF7D1FB40F2D9113F48FFF7CCFB35
:101010004FF4ED713C48FFF7C7FB40F2DB113A4853
:10102000FFF7C2FB4FF4EE713748FFF7BDFBE369F2
:10103000226A1343626A43EA8213A26A5208013A9F
:1010400043EA0243E26A43EA0263314A5360314BA6
:1010500001221A66FFF7BCF904462D4B1B6813F0FA
:10106000007F06D1FFF7B4F9001B0228F5D9032051
:101070003CE000203AE0274B00221A66FFF7A8F96F
:101080000446234B1B6813F0007F06D0FFF7A0F93E
:10109000001B0228F5D9032028E0002026E0012BC0
:1010A00026D01B4B5B6803F48001E269914221D199
:1010B00003F03F02216A8A421ED1616A47F6C0727C
:1010C0001A408A421AD103F44032A16A8A4217D1E7
:1010D00003F07063E26A934214D1002006E001201D
:1010E0007047012002E0012000E0002002B070BD46
:1010F0000120FBE70120F9E70120F7E70120F5E7F0
:101100000120F3E70120F1E77C2300080070004094
:101110000038024000004742002800F0F48070B51B
:101120000D4604460368013B0E2B30D8072933D8FF
:10113000794B1B6803F00F038B4208D2CBB2764A7F
:101140001370136803F00F038B4240F0DE802368B6
:1011500013F0020F30D013F0040F04D06F4A9368DD
:1011600043F4E0539360236813F0080F04D06B4AF4
:10117000936843F460439360A368B3B1C02B14D069
:1011800047D8A02B11D00CD9B02B0ED047E040F29D
:1011900051216348FFF708FB40F252216048FFF7F6
:1011A00003FB802B01D0902B39D15C4A936823F04C
:1011B000F003A1680B439360236813F0010F46D03E
:1011C0006368032B30D86268012A32D0931E012B4A
:1011D00036D9524B1B6813F0020F00F098804F492C
:1011E0008B6823F0030313438B60FFF7F1F8064687
:1011F0004A4B9B6803F00C036268B3EB820F26D066
:10120000FFF7E6F8801B41F288339842F0D90320BB
:101210006EE0E02BC9D0F02BC7D0D02BC5D040F268
:1012200075213F48FFF7C0FA4FF41F713C48FFF7A4
:10123000BBFA3A4B1B6813F4003FD0D1012057E0B2
:10124000364B1B6813F0007FC9D1012050E0324BB0
:101250001B6803F00F03AB4207D9EAB22E4B1A709A
:101260001B6803F00F03AB4253D1236813F0040F44
:1012700014D0E3685BB1B3F5805F08D0B3F5A05F2D
:1012800005D0B3F5C05F02D0B3F5E05F31D1234A9A
:10129000936823F4E053E1680B439360236813F0F1
:1012A000080F15D023695BB1B3F5805F08D0B3F5A3
:1012B000A05F05D0B3F5C05F02D0B3F5E05F1DD1EC
:1012C000164A9368216923F4604343EAC10393609B
:1012D000FFF7CCF8114B9B68C3F30313114AD35C9F
:1012E000D840114B1860114B1868FFF7A1FA002085
:1012F00070BD40F2BA210A48FFF756FA40F2C12108
:101300000748FFF751FA012070470120F0E701205C
:10131000EEE70120ECE700BF003C0240003802404D
:101320007C230008E8240008100000200C000020A6
:1013300030B595B000240194224B1A6C42F08052D3
:101340001A641B6C03F080530193019B02941E4BA3
:101350001A6842F480421A601B6803F480430293C7
:10136000029B012308934FF4803309934FF48003C9
:101370000F93082310934FF4A8731193022512952D
:10138000072313930E9508A8FFF754FC0F2303932C
:10139000049505944FF4A05306934FF4805307939C
:1013A000052103A8FFF7B8FEFFF79AF8074BA3FB48
:1013B00000308009FFF746F80420FFF773FA15B0F4
:1013C00030BD00BF0038024000700040D34D6210B5
:1013D00008B5FFF74FFAFFF7ABFFFFF7CBF808BDF3
:1013E00010B5044600F0C2F801462046FFF7A9F800
:1013F00001210248FFF7A5F810BD00BF64220008D4
:1014000008B51F48FFF7ECFF1E48FFF7E9FF1E4B2A
:1014100019681E48FFF734F9FFF7FCF8FFF7EEFBF9
:10142000002421E040F2EE20FFF710F9FA20FFF748
:101430000DF9013421461648FFF722F9154AA2FB9F
:10144000043222F0030303EB9203E31A124A52F828
:10145000235029461148FFF713F91E2D09DDFFF728
:10146000B9FB0F48FFF7BCFF002CDBD14FF47A70BB
:10147000DAE7FFF7B9FB0B48FFF7B2FFF4E700BF6D
:10148000AC230008DC2300081000002028240008FA
:1014900040240008CDCCCCCCC42400084C24000847
:1014A000602400087C24000808B503460C4A126832
:1014B0005AB10B4A1068033323F003030344094A6B
:1014C000934206D8064A136008BD054A06491160D2
:1014D000EFE700F045F80C2303604FF0FF30F3E72F
:1014E000F800002000FC01201001002030B5144657
:1014F000002C9BB005461A4605DA8B2303604FF09B
:10150000FF301BB030BD4FF40273ADF80C3014BF88
:1015100004F1FF332346029305934FF6FF730091C6
:101520000491ADF80E3069461E9B00F083F8431C11
:10153000BCBF8B232B60002CE3D0009B00221A70D1
:10154000DFE7000007B5009313460A46014603484B
:101550000068FFF7CBFF03B05DF804FB1400002028
:10156000014B1868704700BF14000020034613F8B1
:10157000012B002AFBD1181A013870472DE9F047DA
:101580008E681F46BE420B6882460C4690462DD898
:10159000B1F90C2012F4906F26D06569096905EB4A
:1015A0004505A3EB010905EBD5757B1C4B446D107C
:1015B0009D4238BF1D46530527D5294600F0BAFB8A
:1015C000064660B321694A4600F03AFBA38923F43A
:1015D000906343F08003A381266165614E44A5EBCF
:1015E00009052660A5603E46BE4200D93E462068F9
:1015F0003246414600F0B4FAA3689B1BA3602368FF
:10160000334423600020BDE8F0872A4600F01EFC2A
:1016100006460028E0D12169504600F01FFB0C234C
:10162000CAF80030A38943F04003A3814FF0FF3094
:10163000E9E700002DE9F04F98468B891B069DB025
:1016400007460D46144610D50B6973B9402100F0CA
:1016500071FB2860286130B90C233B604FF0FF30EC
:101660001DB0BDE8F08F40236B6100230993202358
:101670008DF82930CDF80C803023DFF89C818DF86F
:101680002A304FF0010923469A4613F8012B0AB17C
:10169000252AF9D1BAEB040B0BD05B46224629462A
:1016A0003846FFF76BFF013000F0A780099A5A44D3
:1016B00009929AF80030002B00F09F8000234FF031
:1016C000FF32CDE905230AF1010A049307938DF84F
:1016D00053301A935446052214F8011B4E4800F06B
:1016E0005FFA049AD8B9D00644BF20238DF853304E
:1016F000110744BF2B238DF853309AF800302A2B62
:1017000015D0079A544600204FF00A0C214611F8D4
:10171000013B303B092B4BD9B0B1079214E0A0EB51
:10172000080309FA03F313430493A246D2E7039B89
:10173000191D1B680391002BBBBF5B4242F00202E4
:1017400007930793B8BF049223782E2B0AD16378AE
:101750002A2B32D1039B1A1D1B68039243EAE373C1
:1017600002340593DFF8B4A021780322504600F03C
:1017700017FA38B1049BA0EB0A00402282401343C1
:101780000134049314F8011B25488DF82810062213
:1017900000F006FA002836D0224B1BBB039B073310
:1017A00023F0070308330393099B334409936AE743
:1017B0000CFB02320C460120A8E7002301340593FC
:1017C00019464FF00A0C204610F8012B303A092A2E
:1017D00003D9002BC6D00591C4E70CFB01210446B8
:1017E0000123F0E703AB00932A460F4B04A93846C8
:1017F000AFF30080421C0646D6D1AB895B063FF5AD
:101800002DAF09982CE703AB00932A46064B04A999
:10181000384600F079F8EDE7F8240008FE240008C7
:1018200002250008000000007D1500082DE9F047A2
:10183000164698468A680B69DDF820909342B8BF37
:101840001346336091F8432007460C460AB1013332
:1018500033602368990642BF3368023333602568DA
:1018600015F0060506D104F1190AE36832689B1ADF
:10187000AB4226DC94F843302268003B18BF0123BA
:1018800092062BD404F1430241463846C847013042
:101890001ED02368226903F00603042B02BFE5680B
:1018A0003368ED1AA3680CBF25EAE575002593425D
:1018B000C4BF9B1AED1800261A34B5421AD1002075
:1018C00008E00123524641463846C847013003D15B
:1018D0004FF0FF30BDE8F0870135C6E7E1185A1C2C
:1018E000302081F84300224494F8451082F84310D8
:1018F0000233C7E70123224641463846C847013034
:10190000E6D00136D9E700002DE9FF470F7E0C9E97
:10191000782F914680460C469A4601F1430207D83B
:10192000622F0AD8002F00F0DD80582F00F0C3800E
:1019300004F1420684F842703AE0A7F16303152BE4
:10194000F6D801A151F823F0A1190008B519000833
:10195000311900083119000831190008311900083F
:10196000B5190008311900083119000831190008AB
:1019700031190008CB1A0008431A0008831A00081E
:101980003119000831190008ED1A00083119000852
:10199000431A000831190008311900088B1A000891
:1019A00033681A1D1B68326004F1420684F8423025
:1019B0000123A8E031682368081D30601E0601D5A8
:1019C0000D6803E05D06FBD5B1F900506168002D9C
:1019D00078DA2D20002984F84300A1602DDA5E48D2
:1019E0006D420A231646B5FBF3F103FB1157C75DA1
:1019F00006F8017D2F46BB420D46F4D9082B0BD1CA
:101A00002368DF0708D5236961689942DEBF302368
:101A100006F8013C06F1FF36921B2261CDF800A0CA
:101A20004B4603AA21464046FFF700FF01306FD125
:101A30004FF0FF3004B0BDE8F08723F004032360CB
:101A4000CDE721683368080653F8045B02D44906E1
:101A500048BFADB26F2F4048336014BF0A2308233C
:101A6000002184F843106668A660002EBADB216866
:101A700021F004012160002DB4D1002EB2D1164610
:101A8000BCE7236843F0200323603448782784F8B8
:101A90004570236831681F0651F8045B02D45F0665
:101AA00048BFADB23160D90744BF43F02003236083
:101AB0001DB11023D4E72848E9E7236823F0200369
:101AC0002360F6E724480A23CDE733682568616977
:101AD000181D30602E061B6801D5196002E06806EB
:101AE000FBD5198000232361164697E733681A1D3A
:101AF00032601E6862680021304600F051F808B17B
:101B0000801B606063682361002384F8433085E7AD
:101B10002369324649464046D047013088D0236881
:101B20009B0714D4E068039B9842B8BF184681E72E
:101B30000123324649464046D04701303FF478AF52
:101B40000135E36803995B1AAB42F1DCEAE7002553
:101B500004F11906F5E700BF092500081A25000859
:101B6000884210B501EB020402D98442234607D80B
:101B7000431EA14208D011F8012B03F8012FF8E70A
:101B8000024401468A4200D110BD13F8014D02F80B
:101B9000014DF7E700000000000000000000000019
:101BA00001F0FF01102A2BDB10F0070F08D010F80E
:101BB000013B013A8B422DD010F0070F42B3F6D112
:101BC000F0B441EA012141EA014122F007047FF02B
:101BD00000070023F0E80256083C85EA010586EA82
:101BE000010685FA47F5A3FA87F586FA47F6A5FABE
:101BF00087F68EB9EED1F0BC01F0FF0102F00702CA
:101C000032B110F8013B013A83EA010313B1F8D174
:101C10000020704701387047002D06BF3546033855
:101C2000073815F0010F07D1013015F4807F02BF8E
:101C3000013015F4C03F0130F0BC0138704700BFDF
:101C40000A44914200F1FF3300D1704710B511F8FA
:101C5000014B03F8014F9142F9D110BD38B505464B
:101C6000002941D051F8043C0C1F002BB8BFE418E8
:101C700000F0E0F81D4A136833B963601460284629
:101C8000BDE8384000F0DCB8A34208D9206821182C
:101C90008B4201BF19685B6809182160EDE71A469D
:101CA0005B680BB1A342FAD911685018A0420BD15E
:101CB00020680144501883421160E0D118685B68C5
:101CC000536008441060DAE702D90C232B60D6E792
:101CD000206821188B4204BF19685B68636004BFE9
:101CE000091821605460CAE738BD00BF0401002014
:101CF00070B50F4E0C463168054611B900F0D4F8A6
:101D000030602146284600F0CFF8431C03D14FF045
:101D1000FF34204670BDC41C24F00304A042F8D058
:101D2000211A284600F0C0F80130F2D1EFE700BFD9
:101D3000000100202DE9F843CD1C25F003050835EE
:101D40000C2D38BF0C25002D064601DBA94204D915
:101D50000C2333600020BDE8F883DFF8D48000F066
:101D600069F8D8F800301C4644BB29463046FFF7D6
:101D7000BFFF431C044658D1D8F800402746002F27
:101D800043D1002C4BD023683946304604EB03097D
:101D900000F08AF8814542D121686D1A2946304603
:101DA000FFF7A6FF01303AD023682B442360D8F810
:101DB00000305A6862BBC8F800700FE02268521BFE
:101DC00020D40B2A17D96119A342256018BF596086
:101DD000636808BFC8F8001062514B60304600F0DD
:101DE0002FF804F10B00231D20F00700C21A1CBFBE
:101DF0001B1AA350AFE76268A3420CBFC8F80020CB
:101E00005A60EBE723466468AEE73C467F68B6E776
:101E10001A465B68A342FBD100235360DEE70C2324
:101E20003360304600F00CF894E70560D6E700BF59
:101E300004010020014800F047B800BF080100205D
:101E4000014800F042B800BF080100202DE9F04130
:101E5000804615460C4621B9BDE8F0411146FFF712
:101E600069BF2AB9FFF7FAFE00242046BDE8F081D9
:101E700000F02CF88542064602D8B5EB500FF4D896
:101E800029464046FFF756FF07460028ECD0B542EA
:101E90002A46214628BF3246FFF7D2FE2146404659
:101EA000FFF7DCFE3C46E0E738B5064D002304466C
:101EB00008462B60FFF7F8FA431C02D12B6803B1E8
:101EC000236038BD6C0000207047704751F8043C17
:101ED000181F002BBCBF0B58C018704753B94AB924
:101EE000002908BF00281CBF4FF0FF314FF0FF3022
:101EF00000F06AB9ADF1080C6DE904CE00F006F807
:101F0000DDF804E0DDE9022304B070472DE9F04775
:101F1000089D0C46002B4ED194468C458646B2FA5D
:101F200082F262D94AB1C2F12003914020FA03F350
:101F30000CFA02FC194300FA02FE4FEA1C471FFA92
:101F40008CF6B1FBF7F44FEA1E4307FB141143EA8A
:101F5000014304FB06F199420AD91CEB030304F187
:101F6000FF3080F01281994240F20F81023C6344BD
:101F7000591A1FFA8EF3B1FBF7F007FB101143EA71
:101F8000014300FB06F69E420AD91CEB030300F155
:101F9000FF3180F0FC809E4240F2F98063440238B9
:101FA0009B1B40EA044000211DB1D3400022C5E93B
:101FB0000032BDE8F0878B4205D90DB1C5E90001BB
:101FC00000210846F5E7B3FA83F1002946D1A34280
:101FD00002D39042C0F0F080861A64EB0303012024
:101FE000002DE6D0C5E90063E3E7002A40F09080C9
:101FF000A1EB0C044FEA1C481FFA8CF70121B4FB3B
:10200000F8F64FEA1E4308FB164443EA044307FB75
:1020100006F0984208D91CEB030306F1FF3402D204
:10202000984200F2CD8026461C1A1FFA8EF3B4FBAC
:10203000F8F008FB104443EA044300FB07F79F4213
:1020400008D91CEB030300F1FF3402D29F4200F2D7
:10205000B0802046DB1B40EA0640A5E7C1F1200620
:102060008B4022FA06F71F4320FA06FC04FA01F31C
:1020700043EA0C03F44000FA01F8380C4FEA134924
:10208000B4FBF0FE1FFA87FC00FB1E4449EA04443F
:102090000EFB0CF9A14502FA01F20AD93C190EF126
:1020A000FF3A80F08480A14540F28180AEF1020EBB
:1020B0003C44A4EB09041FFA83F9B4FBF0F300FBE2
:1020C000134449EA044403FB0CFCA44507D93C191A
:1020D00003F1FF3067D2A44565D9023B3C4443EA93
:1020E0000E40A0FB0293A4EB0C049C42CE469C46FF
:1020F00051D34ED055B1B8EB0E0364EB0C0404FA87
:1021000006F6CB401E43CC40C5E90064002150E7F1
:10211000C2F1200320FA03F10CFA02FC24FA03F3C3
:1021200094400C434FEA1C4800FA02FE1FFA8CF759
:10213000B3FBF8F008FB1031230C43EA014300FB2A
:1021400007F1994208D91CEB030300F1FF362CD2AA
:1021500099422AD9023863445B1AA4B2B3FBF8F15E
:1021600008FB113344EA034401FB07F3A34208D9F7
:102170001CEB040401F1FF3613D2A34211D902393A
:102180006444E41A41EA004139E70446F0E60846AF
:1021900006E7C845AED2B9EB020E63EB070C013877
:1021A000A8E73146EDE7034699E73046D4E7D6463F
:1021B0007FE7634402384DE70646234608460FE7AB
:1021C000023E634430E700BF704700BF5374616351
:1021D0006B206672616D653A0A0000002052302063
:1021E0003D2020253038580A0000000020523120C0
:1021F0003D2020253038580A0000000020523220AF
:102200003D2020253038580A00000000205233209D
:102210003D2020253038580A00000000205231327D
:10222000203D20253038580A00000000204C522064
:102230003D2020253038580A00000000205043205F
:102240003D2020253038580A00000000205053520D
:10225000203D20253038580A000000004653522FF8
:102260004641523A0A0000002043465352203D2086
:1022700020253038580A00002048465352203D207F
:1022800020253038580A00002044465352203D2073
:1022900020253038580A00002041465352203D2066
:1022A00020253038580A0000204D4D464152203D2F
:1022B00020253038580A00002042464152203D2057
:1022C00020253038580A00004D6973630A00000069
:1022D000204C522F4558435F52455455524E3D2095
:1022E000253038580A00000057726F6E6720706101
:1022F00072616D65746572732076616C75653A20E4
:1023000066696C65202573206F6E206C696E652090
:1023100025640D0A000000002E2E2F73797374655A
:102320006D2F7372632F73746D333266342D686151
:102330006C2F73746D3332663478785F68616C5FCC
:10234000636F727465782E63000000002E2E2F7369
:10235000797374656D2F7372632F73746D33326686
:10236000342D68616C2F73746D3332663478785F06
:1023700068616C5F6770696F2E6300002E2E2F738B
:10238000797374656D2F7372632F73746D33326656
:10239000342D68616C2F73746D3332663478785FD6
:1023A00068616C5F7263632E630000004368756F41
:1023B0006E67205472696E68204449455520484F25
:1023C00041204E4849455420444F20535520445500
:1023D0004E4720515541542047494F004E657520C6
:1023E0006E6869657420646F203E20333020746904
:1023F000656E2068616E6820626174207175617419
:102400002067696F2C204E6575206E6869657420A1
:10241000646F203C203330207461742071756174C6
:102420002067696F2100000053797374656D206324
:102430006C6F636B3A20257520487A0A0000000013
:102440005365636F6E642025750A000054656D70D6
:10245000657261747572653A2025640A0000000097
:1024600042415420515541542047494F2C204C455E
:10247000442058414E4820424154210054415420A8
:10248000515541542047494F2C204C454420584138
:102490004E482054415421005B4861726446617586
:1024A0006C745D0A000000005B4275734661756CD8
:1024B000745D0A005B55736167654661756C745D98
:1024C0000A000000160000001700000021000000B4
:1024D000230000000C000000210000001B00000091
:1024E0000F000000250000000000000000000000B8
:1024F0000102030406070809232D302B2000686C15
:102500004C00656667454647003031323334353616
:10251000373839414243444546003031323334354F
:102520003637383961626364656600001000000068
:1025300000000000017A5200027C0E011B0C0D000D
:10254000100000001800000024F0FFFF1000000041
:10255000000000001000000000000000017A52009E
:10256000027C0E011B0C0D0038000000180000005A
:1025700030F6FFFF9E00000000510E10840485031A
:10258000860287015BC7C6C5C40E004C0A420B0A0F
:10259000420B0E10840485038602870151C7C6C50D
:0425A000C40E000065
:0825A400C8EFFF7F01000000F9
:1025AC00785634127000002000000000100000006B
:1025BC000024F400180000200000000000000000BF
:1025CC0068000000D00000000000000000000000C7
:1025DC0000000000000000000000000000000000EF
:1025EC0000000000000000000000000000000000DF
:1025FC0000000000000000000000000000000000CF
:08260C00000000003254769832
:04000005080001DD11
:00000001FF
